{
  "contractName": "SmartDegree",
  "abi": [
    {
      "inputs": [],
      "stateMutability": "nonpayable",
      "type": "constructor"
    },
    {
      "inputs": [
        {
          "internalType": "string",
          "name": "message",
          "type": "string"
        }
      ],
      "name": "InvalidDegreeError",
      "type": "error"
    },
    {
      "inputs": [
        {
          "internalType": "address",
          "name": "_universityAddress",
          "type": "address"
        },
        {
          "internalType": "string",
          "name": "_universityName",
          "type": "string"
        },
        {
          "internalType": "string",
          "name": "_universityCountry",
          "type": "string"
        }
      ],
      "name": "registerUniversity",
      "outputs": [
        {
          "components": [
            {
              "internalType": "address",
              "name": "universityAddress",
              "type": "address"
            },
            {
              "internalType": "string",
              "name": "name",
              "type": "string"
            },
            {
              "internalType": "string",
              "name": "country",
              "type": "string"
            },
            {
              "internalType": "bool",
              "name": "isActive",
              "type": "bool"
            }
          ],
          "internalType": "struct SmartDegree.University",
          "name": "",
          "type": "tuple"
        }
      ],
      "stateMutability": "nonpayable",
      "type": "function"
    },
    {
      "inputs": [],
      "name": "getUniversities",
      "outputs": [
        {
          "components": [
            {
              "internalType": "address",
              "name": "universityAddress",
              "type": "address"
            },
            {
              "internalType": "string",
              "name": "name",
              "type": "string"
            },
            {
              "internalType": "string",
              "name": "country",
              "type": "string"
            },
            {
              "internalType": "bool",
              "name": "isActive",
              "type": "bool"
            }
          ],
          "internalType": "struct SmartDegree.University[]",
          "name": "",
          "type": "tuple[]"
        }
      ],
      "stateMutability": "view",
      "type": "function",
      "constant": true
    },
    {
      "inputs": [
        {
          "internalType": "string",
          "name": "_title",
          "type": "string"
        },
        {
          "internalType": "string",
          "name": "_field",
          "type": "string"
        }
      ],
      "name": "registerProgram",
      "outputs": [
        {
          "components": [
            {
              "internalType": "bytes32",
              "name": "programId",
              "type": "bytes32"
            },
            {
              "internalType": "string",
              "name": "title",
              "type": "string"
            },
            {
              "internalType": "string",
              "name": "field",
              "type": "string"
            },
            {
              "internalType": "address",
              "name": "universityAddress",
              "type": "address"
            },
            {
              "internalType": "bool",
              "name": "isActive",
              "type": "bool"
            }
          ],
          "internalType": "struct SmartDegree.Program",
          "name": "",
          "type": "tuple"
        }
      ],
      "stateMutability": "nonpayable",
      "type": "function"
    },
    {
      "inputs": [
        {
          "internalType": "address",
          "name": "_universityAddress",
          "type": "address"
        }
      ],
      "name": "getProgramsForUniversity",
      "outputs": [
        {
          "components": [
            {
              "internalType": "bytes32",
              "name": "programId",
              "type": "bytes32"
            },
            {
              "internalType": "string",
              "name": "title",
              "type": "string"
            },
            {
              "internalType": "string",
              "name": "field",
              "type": "string"
            },
            {
              "internalType": "address",
              "name": "universityAddress",
              "type": "address"
            },
            {
              "internalType": "bool",
              "name": "isActive",
              "type": "bool"
            }
          ],
          "internalType": "struct SmartDegree.Program[]",
          "name": "",
          "type": "tuple[]"
        }
      ],
      "stateMutability": "view",
      "type": "function",
      "constant": true
    },
    {
      "inputs": [
        {
          "internalType": "string",
          "name": "_firstName",
          "type": "string"
        },
        {
          "internalType": "string",
          "name": "_lastName",
          "type": "string"
        }
      ],
      "name": "registerStudent",
      "outputs": [
        {
          "components": [
            {
              "internalType": "address",
              "name": "studentAddress",
              "type": "address"
            },
            {
              "internalType": "string",
              "name": "firstName",
              "type": "string"
            },
            {
              "internalType": "string",
              "name": "lastName",
              "type": "string"
            },
            {
              "internalType": "address",
              "name": "universityAddress",
              "type": "address"
            },
            {
              "internalType": "bytes32",
              "name": "programId",
              "type": "bytes32"
            },
            {
              "internalType": "bool",
              "name": "isEnrolled",
              "type": "bool"
            },
            {
              "internalType": "bool",
              "name": "isActive",
              "type": "bool"
            }
          ],
          "internalType": "struct SmartDegree.Student",
          "name": "",
          "type": "tuple"
        }
      ],
      "stateMutability": "nonpayable",
      "type": "function"
    },
    {
      "inputs": [
        {
          "internalType": "address",
          "name": "_universityAddress",
          "type": "address"
        },
        {
          "internalType": "bytes32",
          "name": "_programId",
          "type": "bytes32"
        }
      ],
      "name": "requestToJoinUniversity",
      "outputs": [
        {
          "internalType": "string",
          "name": "",
          "type": "string"
        }
      ],
      "stateMutability": "nonpayable",
      "type": "function"
    },
    {
      "inputs": [
        {
          "internalType": "address",
          "name": "_studentAddress",
          "type": "address"
        }
      ],
      "name": "acceptStudent",
      "outputs": [
        {
          "internalType": "string",
          "name": "",
          "type": "string"
        }
      ],
      "stateMutability": "nonpayable",
      "type": "function"
    },
    {
      "inputs": [
        {
          "internalType": "address",
          "name": "_universityAddress",
          "type": "address"
        }
      ],
      "name": "getStudentsForUniversity",
      "outputs": [
        {
          "components": [
            {
              "internalType": "address",
              "name": "studentAddress",
              "type": "address"
            },
            {
              "internalType": "string",
              "name": "firstName",
              "type": "string"
            },
            {
              "internalType": "string",
              "name": "lastName",
              "type": "string"
            },
            {
              "internalType": "address",
              "name": "universityAddress",
              "type": "address"
            },
            {
              "internalType": "bytes32",
              "name": "programId",
              "type": "bytes32"
            },
            {
              "internalType": "bool",
              "name": "isEnrolled",
              "type": "bool"
            },
            {
              "internalType": "bool",
              "name": "isActive",
              "type": "bool"
            }
          ],
          "internalType": "struct SmartDegree.Student[]",
          "name": "",
          "type": "tuple[]"
        }
      ],
      "stateMutability": "view",
      "type": "function",
      "constant": true
    },
    {
      "inputs": [
        {
          "internalType": "address",
          "name": "_studentAddress",
          "type": "address"
        }
      ],
      "name": "getStudent",
      "outputs": [
        {
          "components": [
            {
              "internalType": "address",
              "name": "studentAddress",
              "type": "address"
            },
            {
              "internalType": "string",
              "name": "firstName",
              "type": "string"
            },
            {
              "internalType": "string",
              "name": "lastName",
              "type": "string"
            },
            {
              "internalType": "address",
              "name": "universityAddress",
              "type": "address"
            },
            {
              "internalType": "bytes32",
              "name": "programId",
              "type": "bytes32"
            },
            {
              "internalType": "bool",
              "name": "isEnrolled",
              "type": "bool"
            },
            {
              "internalType": "bool",
              "name": "isActive",
              "type": "bool"
            }
          ],
          "internalType": "struct SmartDegree.Student",
          "name": "",
          "type": "tuple"
        }
      ],
      "stateMutability": "view",
      "type": "function",
      "constant": true
    },
    {
      "inputs": [
        {
          "internalType": "address",
          "name": "_studentAddress",
          "type": "address"
        }
      ],
      "name": "issueDegree",
      "outputs": [
        {
          "components": [
            {
              "internalType": "bytes32",
              "name": "issuedDegreeId",
              "type": "bytes32"
            },
            {
              "internalType": "address",
              "name": "studentAddress",
              "type": "address"
            },
            {
              "internalType": "string",
              "name": "firstName",
              "type": "string"
            },
            {
              "internalType": "string",
              "name": "lastName",
              "type": "string"
            },
            {
              "internalType": "string",
              "name": "university",
              "type": "string"
            },
            {
              "internalType": "string",
              "name": "country",
              "type": "string"
            },
            {
              "internalType": "bytes32",
              "name": "programId",
              "type": "bytes32"
            },
            {
              "internalType": "uint256",
              "name": "issuedAt",
              "type": "uint256"
            }
          ],
          "internalType": "struct SmartDegree.IssuedDegree",
          "name": "",
          "type": "tuple"
        }
      ],
      "stateMutability": "nonpayable",
      "type": "function"
    },
    {
      "inputs": [
        {
          "internalType": "address",
          "name": "_studentAddress",
          "type": "address"
        }
      ],
      "name": "getIssuedDegreesForStudent",
      "outputs": [
        {
          "components": [
            {
              "internalType": "bytes32",
              "name": "issuedDegreeId",
              "type": "bytes32"
            },
            {
              "internalType": "address",
              "name": "studentAddress",
              "type": "address"
            },
            {
              "internalType": "string",
              "name": "firstName",
              "type": "string"
            },
            {
              "internalType": "string",
              "name": "lastName",
              "type": "string"
            },
            {
              "internalType": "string",
              "name": "university",
              "type": "string"
            },
            {
              "internalType": "string",
              "name": "country",
              "type": "string"
            },
            {
              "internalType": "bytes32",
              "name": "programId",
              "type": "bytes32"
            },
            {
              "internalType": "uint256",
              "name": "issuedAt",
              "type": "uint256"
            }
          ],
          "internalType": "struct SmartDegree.IssuedDegree[]",
          "name": "",
          "type": "tuple[]"
        }
      ],
      "stateMutability": "view",
      "type": "function",
      "constant": true
    },
    {
      "inputs": [
        {
          "internalType": "bytes32",
          "name": "_degreeId",
          "type": "bytes32"
        }
      ],
      "name": "validateDegree",
      "outputs": [
        {
          "components": [
            {
              "internalType": "bytes32",
              "name": "issuedDegreeId",
              "type": "bytes32"
            },
            {
              "internalType": "address",
              "name": "studentAddress",
              "type": "address"
            },
            {
              "internalType": "string",
              "name": "firstName",
              "type": "string"
            },
            {
              "internalType": "string",
              "name": "lastName",
              "type": "string"
            },
            {
              "internalType": "string",
              "name": "university",
              "type": "string"
            },
            {
              "internalType": "string",
              "name": "country",
              "type": "string"
            },
            {
              "internalType": "bytes32",
              "name": "programId",
              "type": "bytes32"
            },
            {
              "internalType": "uint256",
              "name": "issuedAt",
              "type": "uint256"
            }
          ],
          "internalType": "struct SmartDegree.IssuedDegree",
          "name": "",
          "type": "tuple"
        }
      ],
      "stateMutability": "view",
      "type": "function",
      "constant": true
    }
  ],
  "bytecode": "0x608060405234801561001057600080fd5b5033600860006101000a81548173ffffffffffffffffffffffffffffffffffffffff021916908373ffffffffffffffffffffffffffffffffffffffff1602179055506159c980620000626000396000f3fe608060405234801561001057600080fd5b50600436106100b45760003560e01c8063617569d611610071578063617569d6146101d95780636b7b44d7146102095780637bc4c35014610239578063a116220d14610269578063aa41d6bf14610299578063b9342822146102c9576100b4565b80630681c0dd146100b9578063095e7811146100e95780630a1b776c146101195780631c00404d1461014957806349d89ea4146101795780634ac3098c146101a9575b600080fd5b6100d360048036038101906100ce9190613d79565b6102e7565b6040516100e09190613f64565b60405180910390f35b61010360048036038101906100fe91906140e7565b6105d1565b60405161011091906141f7565b60405180910390f35b610133600480360381019061012e9190614219565b610ab7565b6040516101409190614334565b60405180910390f35b610163600480360381019061015e9190614356565b6110ef565b60405161017091906144e8565b60405180910390f35b610193600480360381019061018e9190614356565b611504565b6040516101a09190613f64565b60405180910390f35b6101c360048036038101906101be9190614356565b612274565b6040516101d09190614691565b60405180910390f35b6101f360048036038101906101ee9190614356565b612655565b60405161020091906146fd565b60405180910390f35b610223600480360381019061021e9190614356565b612aff565b6040516102309190614334565b60405180910390f35b610253600480360381019061024e9190614219565b612dfe565b604051610260919061479c565b60405180910390f35b610283600480360381019061027e91906147be565b613216565b60405161029091906146fd565b60405180910390f35b6102b360048036038101906102ae9190614356565b61364d565b6040516102c0919061493d565b60405180910390f35b6102d1613910565b6040516102de9190614a8b565b60405180910390f35b6102ef613bd4565b6006600083815260200190815260200160002060405180610100016040529081600082015481526020016001820160009054906101000a900473ffffffffffffffffffffffffffffffffffffffff1673ffffffffffffffffffffffffffffffffffffffff1673ffffffffffffffffffffffffffffffffffffffff16815260200160028201805461037e90614adc565b80601f01602080910402602001604051908101604052809291908181526020018280546103aa90614adc565b80156103f75780601f106103cc576101008083540402835291602001916103f7565b820191906000526020600020905b8154815290600101906020018083116103da57829003601f168201915b5050505050815260200160038201805461041090614adc565b80601f016020809104026020016040519081016040528092919081815260200182805461043c90614adc565b80156104895780601f1061045e57610100808354040283529160200191610489565b820191906000526020600020905b81548152906001019060200180831161046c57829003601f168201915b505050505081526020016004820180546104a290614adc565b80601f01602080910402602001604051908101604052809291908181526020018280546104ce90614adc565b801561051b5780601f106104f05761010080835404028352916020019161051b565b820191906000526020600020905b8154815290600101906020018083116104fe57829003601f168201915b5050505050815260200160058201805461053490614adc565b80601f016020809104026020016040519081016040528092919081815260200182805461056090614adc565b80156105ad5780601f10610582576101008083540402835291602001916105ad565b820191906000526020600020905b81548152906001019060200180831161059057829003601f168201915b50505050508152602001600682015481526020016007820154815250509050919050565b6105d9613c35565b600860009054906101000a900473ffffffffffffffffffffffffffffffffffffffff1673ffffffffffffffffffffffffffffffffffffffff163373ffffffffffffffffffffffffffffffffffffffff1614610669576040517f08c379a000000000000000000000000000000000000000000000000000000000815260040161066090614b7f565b60405180910390fd5b600015156000808673ffffffffffffffffffffffffffffffffffffffff1673ffffffffffffffffffffffffffffffffffffffff16815260200190815260200160002060030160009054906101000a900460ff161515146106fe576040517f08c379a00000000000000000000000000000000000000000000000000000000081526004016106f590614c37565b60405180910390fd5b60405180608001604052808573ffffffffffffffffffffffffffffffffffffffff168152602001848152602001838152602001600115158152506000808673ffffffffffffffffffffffffffffffffffffffff1673ffffffffffffffffffffffffffffffffffffffff16815260200190815260200160002060008201518160000160006101000a81548173ffffffffffffffffffffffffffffffffffffffff021916908373ffffffffffffffffffffffffffffffffffffffff16021790555060208201518160010190816107d29190614e03565b5060408201518160020190816107e89190614e03565b5060608201518160030160006101000a81548160ff02191690831515021790555090505060016000808673ffffffffffffffffffffffffffffffffffffffff1673ffffffffffffffffffffffffffffffffffffffff16815260200190815260200160002060000160009054906101000a900473ffffffffffffffffffffffffffffffffffffffff169080600181540180825580915050600190039060005260206000200160009091909190916101000a81548173ffffffffffffffffffffffffffffffffffffffff021916908373ffffffffffffffffffffffffffffffffffffffff1602179055506000808573ffffffffffffffffffffffffffffffffffffffff1673ffffffffffffffffffffffffffffffffffffffff1681526020019081526020016000206040518060800160405290816000820160009054906101000a900473ffffffffffffffffffffffffffffffffffffffff1673ffffffffffffffffffffffffffffffffffffffff1673ffffffffffffffffffffffffffffffffffffffff16815260200160018201805461097f90614adc565b80601f01602080910402602001604051908101604052809291908181526020018280546109ab90614adc565b80156109f85780601f106109cd576101008083540402835291602001916109f8565b820191906000526020600020905b8154815290600101906020018083116109db57829003601f168201915b50505050508152602001600282018054610a1190614adc565b80601f0160208091040260200160405190810160405280929190818152602001828054610a3d90614adc565b8015610a8a5780601f10610a5f57610100808354040283529160200191610a8a565b820191906000526020600020905b815481529060010190602001808311610a6d57829003601f168201915b505050505081526020016003820160009054906101000a900460ff16151515158152505090509392505050565b610abf613c75565b600860009054906101000a900473ffffffffffffffffffffffffffffffffffffffff1673ffffffffffffffffffffffffffffffffffffffff163373ffffffffffffffffffffffffffffffffffffffff1603610b4f576040517f08c379a0000000000000000000000000000000000000000000000000000000008152600401610b4690614f47565b60405180910390fd5b600015156000803373ffffffffffffffffffffffffffffffffffffffff1673ffffffffffffffffffffffffffffffffffffffff16815260200190815260200160002060030160009054906101000a900460ff16151514610be4576040517f08c379a0000000000000000000000000000000000000000000000000000000008152600401610bdb90614fd9565b60405180910390fd5b60001515600460003373ffffffffffffffffffffffffffffffffffffffff1673ffffffffffffffffffffffffffffffffffffffff16815260200190815260200160002060050160019054906101000a900460ff16151514610c7a576040517f08c379a0000000000000000000000000000000000000000000000000000000008152600401610c7190615045565b60405180910390fd5b6005339080600181540180825580915050600190039060005260206000200160009091909190916101000a81548173ffffffffffffffffffffffffffffffffffffffff021916908373ffffffffffffffffffffffffffffffffffffffff1602179055506040518060e001604052803373ffffffffffffffffffffffffffffffffffffffff168152602001848152602001838152602001600073ffffffffffffffffffffffffffffffffffffffff1681526020016000801916815260200160001515815260200160011515815250600460003373ffffffffffffffffffffffffffffffffffffffff1673ffffffffffffffffffffffffffffffffffffffff16815260200190815260200160002060008201518160000160006101000a81548173ffffffffffffffffffffffffffffffffffffffff021916908373ffffffffffffffffffffffffffffffffffffffff1602179055506020820151816001019081610de29190614e03565b506040820151816002019081610df89190614e03565b5060608201518160030160006101000a81548173ffffffffffffffffffffffffffffffffffffffff021916908373ffffffffffffffffffffffffffffffffffffffff1602179055506080820151816004015560a08201518160050160006101000a81548160ff02191690831515021790555060c08201518160050160016101000a81548160ff021916908315150217905550905050600460003373ffffffffffffffffffffffffffffffffffffffff1673ffffffffffffffffffffffffffffffffffffffff1681526020019081526020016000206040518060e00160405290816000820160009054906101000a900473ffffffffffffffffffffffffffffffffffffffff1673ffffffffffffffffffffffffffffffffffffffff1673ffffffffffffffffffffffffffffffffffffffff168152602001600182018054610f3d90614adc565b80601f0160208091040260200160405190810160405280929190818152602001828054610f6990614adc565b8015610fb65780601f10610f8b57610100808354040283529160200191610fb6565b820191906000526020600020905b815481529060010190602001808311610f9957829003601f168201915b50505050508152602001600282018054610fcf90614adc565b80601f0160208091040260200160405190810160405280929190818152602001828054610ffb90614adc565b80156110485780601f1061101d57610100808354040283529160200191611048565b820191906000526020600020905b81548152906001019060200180831161102b57829003601f168201915b505050505081526020016003820160009054906101000a900473ffffffffffffffffffffffffffffffffffffffff1673ffffffffffffffffffffffffffffffffffffffff1673ffffffffffffffffffffffffffffffffffffffff168152602001600482015481526020016005820160009054906101000a900460ff161515151581526020016005820160019054906101000a900460ff161515151581525050905092915050565b6060600115156000808473ffffffffffffffffffffffffffffffffffffffff1673ffffffffffffffffffffffffffffffffffffffff16815260200190815260200160002060030160009054906101000a900460ff16151514611186576040517f08c379a000000000000000000000000000000000000000000000000000000000815260040161117d906150d7565b60405180910390fd5b600060058054905067ffffffffffffffff8111156111a7576111a6613fbc565b5b6040519080825280602002602001820160405280156111e057816020015b6111cd613c75565b8152602001906001900390816111c55790505b50905060005b6005805490508110156114fa576000600460006005848154811061120d5761120c6150f7565b5b9060005260206000200160009054906101000a900473ffffffffffffffffffffffffffffffffffffffff1673ffffffffffffffffffffffffffffffffffffffff1673ffffffffffffffffffffffffffffffffffffffff1681526020019081526020016000206040518060e00160405290816000820160009054906101000a900473ffffffffffffffffffffffffffffffffffffffff1673ffffffffffffffffffffffffffffffffffffffff1673ffffffffffffffffffffffffffffffffffffffff1681526020016001820180546112e390614adc565b80601f016020809104026020016040519081016040528092919081815260200182805461130f90614adc565b801561135c5780601f106113315761010080835404028352916020019161135c565b820191906000526020600020905b81548152906001019060200180831161133f57829003601f168201915b5050505050815260200160028201805461137590614adc565b80601f01602080910402602001604051908101604052809291908181526020018280546113a190614adc565b80156113ee5780601f106113c3576101008083540402835291602001916113ee565b820191906000526020600020905b8154815290600101906020018083116113d157829003601f168201915b505050505081526020016003820160009054906101000a900473ffffffffffffffffffffffffffffffffffffffff1673ffffffffffffffffffffffffffffffffffffffff1673ffffffffffffffffffffffffffffffffffffffff168152602001600482015481526020016005820160009054906101000a900460ff161515151581526020016005820160019054906101000a900460ff16151515158152505090508473ffffffffffffffffffffffffffffffffffffffff16816060015173ffffffffffffffffffffffffffffffffffffffff16036114e657808383815181106114da576114d96150f7565b5b60200260200101819052505b5080806114f290615155565b9150506111e6565b5080915050919050565b61150c613bd4565b600860009054906101000a900473ffffffffffffffffffffffffffffffffffffffff1673ffffffffffffffffffffffffffffffffffffffff163373ffffffffffffffffffffffffffffffffffffffff160361159c576040517f08c379a00000000000000000000000000000000000000000000000000000000081526004016115939061520f565b60405180910390fd5b600115156000803373ffffffffffffffffffffffffffffffffffffffff1673ffffffffffffffffffffffffffffffffffffffff16815260200190815260200160002060030160009054906101000a900460ff16151514611631576040517f08c379a0000000000000000000000000000000000000000000000000000000008152600401611628906150d7565b60405180910390fd5b60011515600460008473ffffffffffffffffffffffffffffffffffffffff1673ffffffffffffffffffffffffffffffffffffffff16815260200190815260200160002060050160019054906101000a900460ff161515146116c7576040517f08c379a00000000000000000000000000000000000000000000000000000000081526004016116be906152a1565b60405180910390fd5b3373ffffffffffffffffffffffffffffffffffffffff16600460008473ffffffffffffffffffffffffffffffffffffffff1673ffffffffffffffffffffffffffffffffffffffff16815260200190815260200160002060030160009054906101000a900473ffffffffffffffffffffffffffffffffffffffff1673ffffffffffffffffffffffffffffffffffffffff1614611797576040517f08c379a000000000000000000000000000000000000000000000000000000000815260040161178e90615333565b60405180910390fd5b60011515600460008473ffffffffffffffffffffffffffffffffffffffff1673ffffffffffffffffffffffffffffffffffffffff16815260200190815260200160002060050160009054906101000a900460ff1615151461182d576040517f08c379a0000000000000000000000000000000000000000000000000000000008152600401611824906153c5565b60405180910390fd5b600082600460008573ffffffffffffffffffffffffffffffffffffffff1673ffffffffffffffffffffffffffffffffffffffff16815260200190815260200160002060040154604051602001611884929190615403565b604051602081830303815290604052805190602001209050806006600083815260200190815260200160002060000154036118f4576040517f08c379a00000000000000000000000000000000000000000000000000000000081526004016118eb9061549e565b60405180910390fd5b60078190806001815401808255809150506001900390600052602060002001600090919091909150556040518061010001604052808281526020018473ffffffffffffffffffffffffffffffffffffffff168152602001600460008673ffffffffffffffffffffffffffffffffffffffff1673ffffffffffffffffffffffffffffffffffffffff168152602001908152602001600020600101805461199890614adc565b80601f01602080910402602001604051908101604052809291908181526020018280546119c490614adc565b8015611a115780601f106119e657610100808354040283529160200191611a11565b820191906000526020600020905b8154815290600101906020018083116119f457829003601f168201915b50505050508152602001600460008673ffffffffffffffffffffffffffffffffffffffff1673ffffffffffffffffffffffffffffffffffffffff1681526020019081526020016000206002018054611a6890614adc565b80601f0160208091040260200160405190810160405280929190818152602001828054611a9490614adc565b8015611ae15780601f10611ab657610100808354040283529160200191611ae1565b820191906000526020600020905b815481529060010190602001808311611ac457829003601f168201915b50505050508152602001600080600460008873ffffffffffffffffffffffffffffffffffffffff1673ffffffffffffffffffffffffffffffffffffffff16815260200190815260200160002060030160009054906101000a900473ffffffffffffffffffffffffffffffffffffffff1673ffffffffffffffffffffffffffffffffffffffff1673ffffffffffffffffffffffffffffffffffffffff1681526020019081526020016000206001018054611b9990614adc565b80601f0160208091040260200160405190810160405280929190818152602001828054611bc590614adc565b8015611c125780601f10611be757610100808354040283529160200191611c12565b820191906000526020600020905b815481529060010190602001808311611bf557829003601f168201915b50505050508152602001600080600460008873ffffffffffffffffffffffffffffffffffffffff1673ffffffffffffffffffffffffffffffffffffffff16815260200190815260200160002060030160009054906101000a900473ffffffffffffffffffffffffffffffffffffffff1673ffffffffffffffffffffffffffffffffffffffff1673ffffffffffffffffffffffffffffffffffffffff1681526020019081526020016000206002018054611cca90614adc565b80601f0160208091040260200160405190810160405280929190818152602001828054611cf690614adc565b8015611d435780601f10611d1857610100808354040283529160200191611d43565b820191906000526020600020905b815481529060010190602001808311611d2657829003601f168201915b50505050508152602001600460008673ffffffffffffffffffffffffffffffffffffffff1673ffffffffffffffffffffffffffffffffffffffff16815260200190815260200160002060040154815260200142815250600660008381526020019081526020016000206000820151816000015560208201518160010160006101000a81548173ffffffffffffffffffffffffffffffffffffffff021916908373ffffffffffffffffffffffffffffffffffffffff1602179055506040820151816002019081611e129190614e03565b506060820151816003019081611e289190614e03565b506080820151816004019081611e3e9190614e03565b5060a0820151816005019081611e549190614e03565b5060c0820151816006015560e082015181600701559050506000600460008573ffffffffffffffffffffffffffffffffffffffff1673ffffffffffffffffffffffffffffffffffffffff16815260200190815260200160002060050160006101000a81548160ff0219169083151502179055506000600460008573ffffffffffffffffffffffffffffffffffffffff1673ffffffffffffffffffffffffffffffffffffffff16815260200190815260200160002060030160006101000a81548173ffffffffffffffffffffffffffffffffffffffff021916908373ffffffffffffffffffffffffffffffffffffffff1602179055506000600460008573ffffffffffffffffffffffffffffffffffffffff1673ffffffffffffffffffffffffffffffffffffffff168152602001908152602001600020600401819055506006600082815260200190815260200160002060405180610100016040529081600082015481526020016001820160009054906101000a900473ffffffffffffffffffffffffffffffffffffffff1673ffffffffffffffffffffffffffffffffffffffff1673ffffffffffffffffffffffffffffffffffffffff16815260200160028201805461202090614adc565b80601f016020809104026020016040519081016040528092919081815260200182805461204c90614adc565b80156120995780601f1061206e57610100808354040283529160200191612099565b820191906000526020600020905b81548152906001019060200180831161207c57829003601f168201915b505050505081526020016003820180546120b290614adc565b80601f01602080910402602001604051908101604052809291908181526020018280546120de90614adc565b801561212b5780601f106121005761010080835404028352916020019161212b565b820191906000526020600020905b81548152906001019060200180831161210e57829003601f168201915b5050505050815260200160048201805461214490614adc565b80601f016020809104026020016040519081016040528092919081815260200182805461217090614adc565b80156121bd5780601f10612192576101008083540402835291602001916121bd565b820191906000526020600020905b8154815290600101906020018083116121a057829003601f168201915b505050505081526020016005820180546121d690614adc565b80601f016020809104026020016040519081016040528092919081815260200182805461220290614adc565b801561224f5780601f106122245761010080835404028352916020019161224f565b820191906000526020600020905b81548152906001019060200180831161223257829003601f168201915b5050505050815260200160068201548152602001600782015481525050915050919050565b6060600060078054905067ffffffffffffffff81111561229757612296613fbc565b5b6040519080825280602002602001820160405280156122d057816020015b6122bd613bd4565b8152602001906001900390816122b55790505b50905060005b60078054905081101561264b57600060066000600784815481106122fd576122fc6150f7565b5b9060005260206000200154815260200190815260200160002060405180610100016040529081600082015481526020016001820160009054906101000a900473ffffffffffffffffffffffffffffffffffffffff1673ffffffffffffffffffffffffffffffffffffffff1673ffffffffffffffffffffffffffffffffffffffff16815260200160028201805461239290614adc565b80601f01602080910402602001604051908101604052809291908181526020018280546123be90614adc565b801561240b5780601f106123e05761010080835404028352916020019161240b565b820191906000526020600020905b8154815290600101906020018083116123ee57829003601f168201915b5050505050815260200160038201805461242490614adc565b80601f016020809104026020016040519081016040528092919081815260200182805461245090614adc565b801561249d5780601f106124725761010080835404028352916020019161249d565b820191906000526020600020905b81548152906001019060200180831161248057829003601f168201915b505050505081526020016004820180546124b690614adc565b80601f01602080910402602001604051908101604052809291908181526020018280546124e290614adc565b801561252f5780601f106125045761010080835404028352916020019161252f565b820191906000526020600020905b81548152906001019060200180831161251257829003601f168201915b5050505050815260200160058201805461254890614adc565b80601f016020809104026020016040519081016040528092919081815260200182805461257490614adc565b80156125c15780601f10612596576101008083540402835291602001916125c1565b820191906000526020600020905b8154815290600101906020018083116125a457829003601f168201915b505050505081526020016006820154815260200160078201548152505090508473ffffffffffffffffffffffffffffffffffffffff16816020015173ffffffffffffffffffffffffffffffffffffffff1603612637578083838151811061262b5761262a6150f7565b5b60200260200101819052505b50808061264390615155565b9150506122d6565b5080915050919050565b6060600115156000803373ffffffffffffffffffffffffffffffffffffffff1673ffffffffffffffffffffffffffffffffffffffff16815260200190815260200160002060030160009054906101000a900460ff161515146126ec576040517f08c379a00000000000000000000000000000000000000000000000000000000081526004016126e3906150d7565b60405180910390fd5b60011515600460008473ffffffffffffffffffffffffffffffffffffffff1673ffffffffffffffffffffffffffffffffffffffff16815260200190815260200160002060050160019054906101000a900460ff16151514612782576040517f08c379a0000000000000000000000000000000000000000000000000000000008152600401612779906152a1565b60405180910390fd5b3373ffffffffffffffffffffffffffffffffffffffff16600460008473ffffffffffffffffffffffffffffffffffffffff1673ffffffffffffffffffffffffffffffffffffffff16815260200190815260200160002060030160009054906101000a900473ffffffffffffffffffffffffffffffffffffffff1673ffffffffffffffffffffffffffffffffffffffff1614612852576040517f08c379a000000000000000000000000000000000000000000000000000000000815260040161284990615530565b60405180910390fd5b3373ffffffffffffffffffffffffffffffffffffffff16600460008473ffffffffffffffffffffffffffffffffffffffff1673ffffffffffffffffffffffffffffffffffffffff16815260200190815260200160002060030160009054906101000a900473ffffffffffffffffffffffffffffffffffffffff1673ffffffffffffffffffffffffffffffffffffffff16148015612942575060001515600460008473ffffffffffffffffffffffffffffffffffffffff1673ffffffffffffffffffffffffffffffffffffffff16815260200190815260200160002060050160009054906101000a900460ff161515145b612981576040517f08c379a0000000000000000000000000000000000000000000000000000000008152600401612978906155c2565b60405180910390fd5b3373ffffffffffffffffffffffffffffffffffffffff1660026000600460008673ffffffffffffffffffffffffffffffffffffffff1673ffffffffffffffffffffffffffffffffffffffff16815260200190815260200160002060040154815260200190815260200160002060030160009054906101000a900473ffffffffffffffffffffffffffffffffffffffff1673ffffffffffffffffffffffffffffffffffffffff1614612a67576040517f08c379a0000000000000000000000000000000000000000000000000000000008152600401612a5e90615654565b60405180910390fd5b6001600460008473ffffffffffffffffffffffffffffffffffffffff1673ffffffffffffffffffffffffffffffffffffffff16815260200190815260200160002060050160006101000a81548160ff0219169083151502179055506040518060400160405280601e81526020017f53747564656e74206163636570746564207375636365737366756c6c792e00008152509050919050565b612b07613c75565b60011515600460008473ffffffffffffffffffffffffffffffffffffffff1673ffffffffffffffffffffffffffffffffffffffff16815260200190815260200160002060050160019054906101000a900460ff16151514612b9d576040517f08c379a0000000000000000000000000000000000000000000000000000000008152600401612b94906152a1565b60405180910390fd5b600460008373ffffffffffffffffffffffffffffffffffffffff1673ffffffffffffffffffffffffffffffffffffffff1681526020019081526020016000206040518060e00160405290816000820160009054906101000a900473ffffffffffffffffffffffffffffffffffffffff1673ffffffffffffffffffffffffffffffffffffffff1673ffffffffffffffffffffffffffffffffffffffff168152602001600182018054612c4d90614adc565b80601f0160208091040260200160405190810160405280929190818152602001828054612c7990614adc565b8015612cc65780601f10612c9b57610100808354040283529160200191612cc6565b820191906000526020600020905b815481529060010190602001808311612ca957829003601f168201915b50505050508152602001600282018054612cdf90614adc565b80601f0160208091040260200160405190810160405280929190818152602001828054612d0b90614adc565b8015612d585780601f10612d2d57610100808354040283529160200191612d58565b820191906000526020600020905b815481529060010190602001808311612d3b57829003601f168201915b505050505081526020016003820160009054906101000a900473ffffffffffffffffffffffffffffffffffffffff1673ffffffffffffffffffffffffffffffffffffffff1673ffffffffffffffffffffffffffffffffffffffff168152602001600482015481526020016005820160009054906101000a900460ff161515151581526020016005820160019054906101000a900460ff1615151515815250509050919050565b612e06613ce5565b600115156000803373ffffffffffffffffffffffffffffffffffffffff1673ffffffffffffffffffffffffffffffffffffffff16815260200190815260200160002060030160009054906101000a900460ff16151514612e9b576040517f08c379a0000000000000000000000000000000000000000000000000000000008152600401612e92906150d7565b60405180910390fd5b6000838333604051602001612eb293929190615674565b604051602081830303815290604052805190602001209050600015156002600083815260200190815260200160002060030160149054906101000a900460ff16151514612f34576040517f08c379a0000000000000000000000000000000000000000000000000000000008152600401612f2b9061572b565b60405180910390fd5b60038190806001815401808255809150506001900390600052602060002001600090919091909150556040518060a001604052808281526020018581526020018481526020013373ffffffffffffffffffffffffffffffffffffffff1681526020016001151581525060026000838152602001908152602001600020600082015181600001556020820151816001019081612fcf9190614e03565b506040820151816002019081612fe59190614e03565b5060608201518160030160006101000a81548173ffffffffffffffffffffffffffffffffffffffff021916908373ffffffffffffffffffffffffffffffffffffffff16021790555060808201518160030160146101000a81548160ff021916908315150217905550905050600260008281526020019081526020016000206040518060a00160405290816000820154815260200160018201805461308890614adc565b80601f01602080910402602001604051908101604052809291908181526020018280546130b490614adc565b80156131015780601f106130d657610100808354040283529160200191613101565b820191906000526020600020905b8154815290600101906020018083116130e457829003601f168201915b5050505050815260200160028201805461311a90614adc565b80601f016020809104026020016040519081016040528092919081815260200182805461314690614adc565b80156131935780601f1061316857610100808354040283529160200191613193565b820191906000526020600020905b81548152906001019060200180831161317657829003601f168201915b505050505081526020016003820160009054906101000a900473ffffffffffffffffffffffffffffffffffffffff1673ffffffffffffffffffffffffffffffffffffffff1673ffffffffffffffffffffffffffffffffffffffff1681526020016003820160149054906101000a900460ff16151515158152505091505092915050565b6060600860009054906101000a900473ffffffffffffffffffffffffffffffffffffffff1673ffffffffffffffffffffffffffffffffffffffff163373ffffffffffffffffffffffffffffffffffffffff16036132a8576040517f08c379a000000000000000000000000000000000000000000000000000000000815260040161329f906157bd565b60405180910390fd5b600015156000803373ffffffffffffffffffffffffffffffffffffffff1673ffffffffffffffffffffffffffffffffffffffff16815260200190815260200160002060030160009054906101000a900460ff1615151461333d576040517f08c379a00000000000000000000000000000000000000000000000000000000081526004016133349061584f565b60405180910390fd5b60011515600460003373ffffffffffffffffffffffffffffffffffffffff1673ffffffffffffffffffffffffffffffffffffffff16815260200190815260200160002060050160019054906101000a900460ff161515146133d3576040517f08c379a00000000000000000000000000000000000000000000000000000000081526004016133ca906152a1565b60405180910390fd5b8273ffffffffffffffffffffffffffffffffffffffff16600460003373ffffffffffffffffffffffffffffffffffffffff1673ffffffffffffffffffffffffffffffffffffffff16815260200190815260200160002060030160009054906101000a900473ffffffffffffffffffffffffffffffffffffffff1673ffffffffffffffffffffffffffffffffffffffff16036134a3576040517f08c379a000000000000000000000000000000000000000000000000000000000815260040161349a906158e1565b60405180910390fd5b8273ffffffffffffffffffffffffffffffffffffffff166002600084815260200190815260200160002060030160009054906101000a900473ffffffffffffffffffffffffffffffffffffffff1673ffffffffffffffffffffffffffffffffffffffff1614613547576040517f08c379a000000000000000000000000000000000000000000000000000000000815260040161353e90615973565b60405180910390fd5b82600460003373ffffffffffffffffffffffffffffffffffffffff1673ffffffffffffffffffffffffffffffffffffffff16815260200190815260200160002060030160006101000a81548173ffffffffffffffffffffffffffffffffffffffff021916908373ffffffffffffffffffffffffffffffffffffffff16021790555081600460003373ffffffffffffffffffffffffffffffffffffffff1673ffffffffffffffffffffffffffffffffffffffff168152602001908152602001600020600401819055506040518060400160405280601f81526020017f52657175657374207375626d6974746564207375636365737366756c6c792e00815250905092915050565b6060600060038054905067ffffffffffffffff8111156136705761366f613fbc565b5b6040519080825280602002602001820160405280156136a957816020015b613696613ce5565b81526020019060019003908161368e5790505b50905060005b60038054905081101561390657600060026000600384815481106136d6576136d56150f7565b5b906000526020600020015481526020019081526020016000206040518060a00160405290816000820154815260200160018201805461371490614adc565b80601f016020809104026020016040519081016040528092919081815260200182805461374090614adc565b801561378d5780601f106137625761010080835404028352916020019161378d565b820191906000526020600020905b81548152906001019060200180831161377057829003601f168201915b505050505081526020016002820180546137a690614adc565b80601f01602080910402602001604051908101604052809291908181526020018280546137d290614adc565b801561381f5780601f106137f45761010080835404028352916020019161381f565b820191906000526020600020905b81548152906001019060200180831161380257829003601f168201915b505050505081526020016003820160009054906101000a900473ffffffffffffffffffffffffffffffffffffffff1673ffffffffffffffffffffffffffffffffffffffff1673ffffffffffffffffffffffffffffffffffffffff1681526020016003820160149054906101000a900460ff16151515158152505090508473ffffffffffffffffffffffffffffffffffffffff16816060015173ffffffffffffffffffffffffffffffffffffffff16036138f257808383815181106138e6576138e56150f7565b5b60200260200101819052505b5080806138fe90615155565b9150506136af565b5080915050919050565b6060600060018054905067ffffffffffffffff81111561393357613932613fbc565b5b60405190808252806020026020018201604052801561396c57816020015b613959613c35565b8152602001906001900390816139515790505b50905060005b600180549050811015613bcc5760008060018381548110613996576139956150f7565b5b9060005260206000200160009054906101000a900473ffffffffffffffffffffffffffffffffffffffff1673ffffffffffffffffffffffffffffffffffffffff1673ffffffffffffffffffffffffffffffffffffffff1681526020019081526020016000206040518060800160405290816000820160009054906101000a900473ffffffffffffffffffffffffffffffffffffffff1673ffffffffffffffffffffffffffffffffffffffff1673ffffffffffffffffffffffffffffffffffffffff168152602001600182018054613a6c90614adc565b80601f0160208091040260200160405190810160405280929190818152602001828054613a9890614adc565b8015613ae55780601f10613aba57610100808354040283529160200191613ae5565b820191906000526020600020905b815481529060010190602001808311613ac857829003601f168201915b50505050508152602001600282018054613afe90614adc565b80601f0160208091040260200160405190810160405280929190818152602001828054613b2a90614adc565b8015613b775780601f10613b4c57610100808354040283529160200191613b77565b820191906000526020600020905b815481529060010190602001808311613b5a57829003601f168201915b505050505081526020016003820160009054906101000a900460ff161515151581525050828281518110613bae57613bad6150f7565b5b60200260200101819052508080613bc490615155565b915050613972565b508091505090565b60405180610100016040528060008019168152602001600073ffffffffffffffffffffffffffffffffffffffff1681526020016060815260200160608152602001606081526020016060815260200160008019168152602001600081525090565b6040518060800160405280600073ffffffffffffffffffffffffffffffffffffffff16815260200160608152602001606081526020016000151581525090565b6040518060e00160405280600073ffffffffffffffffffffffffffffffffffffffff1681526020016060815260200160608152602001600073ffffffffffffffffffffffffffffffffffffffff168152602001600080191681526020016000151581526020016000151581525090565b6040518060a00160405280600080191681526020016060815260200160608152602001600073ffffffffffffffffffffffffffffffffffffffff1681526020016000151581525090565b6000604051905090565b600080fd5b600080fd5b6000819050919050565b613d5681613d43565b8114613d6157600080fd5b50565b600081359050613d7381613d4d565b92915050565b600060208284031215613d8f57613d8e613d39565b5b6000613d9d84828501613d64565b91505092915050565b613daf81613d43565b82525050565b600073ffffffffffffffffffffffffffffffffffffffff82169050919050565b6000613de082613db5565b9050919050565b613df081613dd5565b82525050565b600081519050919050565b600082825260208201905092915050565b60005b83811015613e30578082015181840152602081019050613e15565b60008484015250505050565b6000601f19601f8301169050919050565b6000613e5882613df6565b613e628185613e01565b9350613e72818560208601613e12565b613e7b81613e3c565b840191505092915050565b6000819050919050565b613e9981613e86565b82525050565b600061010083016000830151613eb86000860182613da6565b506020830151613ecb6020860182613de7565b5060408301518482036040860152613ee38282613e4d565b91505060608301518482036060860152613efd8282613e4d565b91505060808301518482036080860152613f178282613e4d565b91505060a083015184820360a0860152613f318282613e4d565b91505060c0830151613f4660c0860182613da6565b5060e0830151613f5960e0860182613e90565b508091505092915050565b60006020820190508181036000830152613f7e8184613e9f565b905092915050565b613f8f81613dd5565b8114613f9a57600080fd5b50565b600081359050613fac81613f86565b92915050565b600080fd5b600080fd5b7f4e487b7100000000000000000000000000000000000000000000000000000000600052604160045260246000fd5b613ff482613e3c565b810181811067ffffffffffffffff8211171561401357614012613fbc565b5b80604052505050565b6000614026613d2f565b90506140328282613feb565b919050565b600067ffffffffffffffff82111561405257614051613fbc565b5b61405b82613e3c565b9050602081019050919050565b82818337600083830152505050565b600061408a61408584614037565b61401c565b9050828152602081018484840111156140a6576140a5613fb7565b5b6140b1848285614068565b509392505050565b600082601f8301126140ce576140cd613fb2565b5b81356140de848260208601614077565b91505092915050565b600080600060608486031215614100576140ff613d39565b5b600061410e86828701613f9d565b935050602084013567ffffffffffffffff81111561412f5761412e613d3e565b5b61413b868287016140b9565b925050604084013567ffffffffffffffff81111561415c5761415b613d3e565b5b614168868287016140b9565b9150509250925092565b60008115159050919050565b61418781614172565b82525050565b60006080830160008301516141a56000860182613de7565b50602083015184820360208601526141bd8282613e4d565b915050604083015184820360408601526141d78282613e4d565b91505060608301516141ec606086018261417e565b508091505092915050565b60006020820190508181036000830152614211818461418d565b905092915050565b600080604083850312156142305761422f613d39565b5b600083013567ffffffffffffffff81111561424e5761424d613d3e565b5b61425a858286016140b9565b925050602083013567ffffffffffffffff81111561427b5761427a613d3e565b5b614287858286016140b9565b9150509250929050565b600060e0830160008301516142a96000860182613de7565b50602083015184820360208601526142c18282613e4d565b915050604083015184820360408601526142db8282613e4d565b91505060608301516142f06060860182613de7565b5060808301516143036080860182613da6565b5060a083015161431660a086018261417e565b5060c083015161432960c086018261417e565b508091505092915050565b6000602082019050818103600083015261434e8184614291565b905092915050565b60006020828403121561436c5761436b613d39565b5b600061437a84828501613f9d565b91505092915050565b600081519050919050565b600082825260208201905092915050565b6000819050602082019050919050565b600060e0830160008301516143c76000860182613de7565b50602083015184820360208601526143df8282613e4d565b915050604083015184820360408601526143f98282613e4d565b915050606083015161440e6060860182613de7565b5060808301516144216080860182613da6565b5060a083015161443460a086018261417e565b5060c083015161444760c086018261417e565b508091505092915050565b600061445e83836143af565b905092915050565b6000602082019050919050565b600061447e82614383565b614488818561438e565b93508360208202850161449a8561439f565b8060005b858110156144d657848403895281516144b78582614452565b94506144c283614466565b925060208a0199505060018101905061449e565b50829750879550505050505092915050565b600060208201905081810360008301526145028184614473565b905092915050565b600081519050919050565b600082825260208201905092915050565b6000819050602082019050919050565b60006101008301600083015161454f6000860182613da6565b5060208301516145626020860182613de7565b506040830151848203604086015261457a8282613e4d565b915050606083015184820360608601526145948282613e4d565b915050608083015184820360808601526145ae8282613e4d565b91505060a083015184820360a08601526145c88282613e4d565b91505060c08301516145dd60c0860182613da6565b5060e08301516145f060e0860182613e90565b508091505092915050565b60006146078383614536565b905092915050565b6000602082019050919050565b60006146278261450a565b6146318185614515565b93508360208202850161464385614526565b8060005b8581101561467f578484038952815161466085826145fb565b945061466b8361460f565b925060208a01995050600181019050614647565b50829750879550505050505092915050565b600060208201905081810360008301526146ab818461461c565b905092915050565b600082825260208201905092915050565b60006146cf82613df6565b6146d981856146b3565b93506146e9818560208601613e12565b6146f281613e3c565b840191505092915050565b6000602082019050818103600083015261471781846146c4565b905092915050565b600060a0830160008301516147376000860182613da6565b506020830151848203602086015261474f8282613e4d565b915050604083015184820360408601526147698282613e4d565b915050606083015161477e6060860182613de7565b506080830151614791608086018261417e565b508091505092915050565b600060208201905081810360008301526147b6818461471f565b905092915050565b600080604083850312156147d5576147d4613d39565b5b60006147e385828601613f9d565b92505060206147f485828601613d64565b9150509250929050565b600081519050919050565b600082825260208201905092915050565b6000819050602082019050919050565b600060a0830160008301516148426000860182613da6565b506020830151848203602086015261485a8282613e4d565b915050604083015184820360408601526148748282613e4d565b91505060608301516148896060860182613de7565b50608083015161489c608086018261417e565b508091505092915050565b60006148b3838361482a565b905092915050565b6000602082019050919050565b60006148d3826147fe565b6148dd8185614809565b9350836020820285016148ef8561481a565b8060005b8581101561492b578484038952815161490c85826148a7565b9450614917836148bb565b925060208a019950506001810190506148f3565b50829750879550505050505092915050565b6000602082019050818103600083015261495781846148c8565b905092915050565b600081519050919050565b600082825260208201905092915050565b6000819050602082019050919050565b60006080830160008301516149a36000860182613de7565b50602083015184820360208601526149bb8282613e4d565b915050604083015184820360408601526149d58282613e4d565b91505060608301516149ea606086018261417e565b508091505092915050565b6000614a01838361498b565b905092915050565b6000602082019050919050565b6000614a218261495f565b614a2b818561496a565b935083602082028501614a3d8561497b565b8060005b85811015614a795784840389528151614a5a85826149f5565b9450614a6583614a09565b925060208a01995050600181019050614a41565b50829750879550505050505092915050565b60006020820190508181036000830152614aa58184614a16565b905092915050565b7f4e487b7100000000000000000000000000000000000000000000000000000000600052602260045260246000fd5b60006002820490506001821680614af457607f821691505b602082108103614b0757614b06614aad565b5b50919050565b7f4f6e6c792074686520636f6e7472616374206f776e657220697320616c6c6f7760008201527f656420746f206372656174652061206e657720756e69766572736974792e0000602082015250565b6000614b69603e836146b3565b9150614b7482614b0d565b604082019050919050565b60006020820190508181036000830152614b9881614b5c565b9050919050565b7f43616e6e6f7420637265617465206475706c696361746520756e69766572736960008201527f74792e20476976656e20756e697665727369747920616c72656164792065786960208201527f73747320616e64206973206163746976652e0000000000000000000000000000604082015250565b6000614c216052836146b3565b9150614c2c82614b9f565b606082019050919050565b60006020820190508181036000830152614c5081614c14565b9050919050565b60008190508160005260206000209050919050565b60006020601f8301049050919050565b600082821b905092915050565b600060088302614cb97fffffffffffffffffffffffffffffffffffffffffffffffffffffffffffffffff82614c7c565b614cc38683614c7c565b95508019841693508086168417925050509392505050565b6000819050919050565b6000614d00614cfb614cf684613e86565b614cdb565b613e86565b9050919050565b6000819050919050565b614d1a83614ce5565b614d2e614d2682614d07565b848454614c89565b825550505050565b600090565b614d43614d36565b614d4e818484614d11565b505050565b5b81811015614d7257614d67600082614d3b565b600181019050614d54565b5050565b601f821115614db757614d8881614c57565b614d9184614c6c565b81016020851015614da0578190505b614db4614dac85614c6c565b830182614d53565b50505b505050565b600082821c905092915050565b6000614dda60001984600802614dbc565b1980831691505092915050565b6000614df38383614dc9565b9150826002028217905092915050565b614e0c82613df6565b67ffffffffffffffff811115614e2557614e24613fbc565b5b614e2f8254614adc565b614e3a828285614d76565b600060209050601f831160018114614e6d5760008415614e5b578287015190505b614e658582614de7565b865550614ecd565b601f198416614e7b86614c57565b60005b82811015614ea357848901518255600182019150602085019450602081019050614e7e565b86831015614ec05784890151614ebc601f891682614dc9565b8355505b6001600288020188555050505b505050505050565b7f54686520636f6e7472616374206f776e65722063616e6e6f742062652061207360008201527f747564656e742e00000000000000000000000000000000000000000000000000602082015250565b6000614f316027836146b3565b9150614f3c82614ed5565b604082019050919050565b60006020820190508181036000830152614f6081614f24565b9050919050565b7f43616e6e6f74206372656174652073747564656e742c2061646472657373206160008201527f6c72656164792062656c6f6e677320746f206120756e69766572736974792e00602082015250565b6000614fc3603f836146b3565b9150614fce82614f67565b604082019050919050565b60006020820190508181036000830152614ff281614fb6565b9050919050565b7f53747564656e7420697320616c726561647920726567697374657265642e0000600082015250565b600061502f601e836146b3565b915061503a82614ff9565b602082019050919050565b6000602082019050818103600083015261505e81615022565b9050919050565b7f556e697665727369747920696e616374697665206f7220646f6573206e6f742060008201527f65786973742e0000000000000000000000000000000000000000000000000000602082015250565b60006150c16026836146b3565b91506150cc82615065565b604082019050919050565b600060208201905081810360008301526150f0816150b4565b9050919050565b7f4e487b7100000000000000000000000000000000000000000000000000000000600052603260045260246000fd5b7f4e487b7100000000000000000000000000000000000000000000000000000000600052601160045260246000fd5b600061516082613e86565b91507fffffffffffffffffffffffffffffffffffffffffffffffffffffffffffffffff820361519257615191615126565b5b600182019050919050565b7f436f6e7472616374206f776e65722063616e6e6f74206973737565206465677260008201527f65652e0000000000000000000000000000000000000000000000000000000000602082015250565b60006151f96023836146b3565b91506152048261519d565b604082019050919050565b60006020820190508181036000830152615228816151ec565b9050919050565b7f53747564656e7420696e616374697665206f7220646f6573206e6f742065786960008201527f73742e0000000000000000000000000000000000000000000000000000000000602082015250565b600061528b6023836146b3565b91506152968261522f565b604082019050919050565b600060208201905081810360008301526152ba8161527e565b9050919050565b7f5468652073747564656e7420646f6573206e6f742062656c6f6e6720746f207460008201527f686520756e69766572736974792e000000000000000000000000000000000000602082015250565b600061531d602e836146b3565b9150615328826152c1565b604082019050919050565b6000602082019050818103600083015261534c81615310565b9050919050565b7f5468652073747564656e74206973206e6f74207965742061636365707465642060008201527f696e2074686520756e69766572736974792e0000000000000000000000000000602082015250565b60006153af6032836146b3565b91506153ba82615353565b604082019050919050565b600060208201905081810360008301526153de816153a2565b9050919050565b6153ee81613dd5565b82525050565b6153fd81613d43565b82525050565b600060408201905061541860008301856153e5565b61542560208301846153f4565b9392505050565b7f44656772656520697320616c72656164792069737375656420666f722067697660008201527f656e2073747564656e744164647265737320616e642070726f6772616d49642e602082015250565b60006154886040836146b3565b91506154938261542c565b604082019050919050565b600060208201905081810360008301526154b78161547b565b9050919050565b7f53747564656e7420646964206e6f74207265717565737420746f206a6f696e2060008201527f756e69766572736974792e000000000000000000000000000000000000000000602082015250565b600061551a602b836146b3565b9150615525826154be565b604082019050919050565b600060208201905081810360008301526155498161550d565b9050919050565b7f53747564656e7420697320616c726561647920656e726f6c6c656420696e207460008201527f686520756e69766572736974792e000000000000000000000000000000000000602082015250565b60006155ac602e836146b3565b91506155b782615550565b604082019050919050565b600060208201905081810360008301526155db8161559f565b9050919050565b7f50726f6772616d20646f6573206e6f742062656c6f6e6720746f20746869732060008201527f756e69766572736974792e000000000000000000000000000000000000000000602082015250565b600061563e602b836146b3565b9150615649826155e2565b604082019050919050565b6000602082019050818103600083015261566d81615631565b9050919050565b6000606082019050818103600083015261568e81866146c4565b905081810360208301526156a281856146c4565b90506156b160408301846153e5565b949350505050565b7f50726f6772616d20697320616c7265616479207265676973746572656420666f60008201527f7220796f757220756e69766572736974792e0000000000000000000000000000602082015250565b60006157156032836146b3565b9150615720826156b9565b604082019050919050565b6000602082019050818103600083015261574481615708565b9050919050565b7f436f6e7472616374206f776e65722063616e6e6f74207265717565737420746f60008201527f206a6f696e206120756e69766572736974792e00000000000000000000000000602082015250565b60006157a76033836146b3565b91506157b28261574b565b604082019050919050565b600060208201905081810360008301526157d68161579a565b9050919050565b7f556e6976657273697479206163636f756e742063616e6e6f742063616e6e6f7460008201527f207265717565737420746f206a6f696e206120756e69766572736974792e0000602082015250565b6000615839603e836146b3565b9150615844826157dd565b604082019050919050565b600060208201905081810360008301526158688161582c565b9050919050565b7f53747564656e7420697320616c726561647920656e726f6c6c656420696e207460008201527f686520676976656e20756e69766572736974792e000000000000000000000000602082015250565b60006158cb6034836146b3565b91506158d68261586f565b604082019050919050565b600060208201905081810360008301526158fa816158be565b9050919050565b7f50726f6772616d20696e616374697665206f7220646f6573206e6f742065786960008201527f737420666f7220676976656e20756e69766572736974792e0000000000000000602082015250565b600061595d6038836146b3565b915061596882615901565b604082019050919050565b6000602082019050818103600083015261598c81615950565b905091905056fea26469706673582212203d423ec0393c03d6f5821cc8cddca25d4f32cd0702eca5b3f601c6651f526c3564736f6c63430008120033",
  "immutableReferences": {},
  "source": "// SPDX-License-Identifier: MIT\npragma solidity >=0.4.22 <0.9.0;\n\n/**\n * @title Smart Degres - A blockchain based solution to prevent counterfeit university degrees.\n * @author Shubham Gulati and Tmas Quintana; Cloud Computing and Blockchain, Saskatchewan Polytechnic.\n * @dev Last Updated: April 23, 2023.\n */\n\n/**\n * Functions available in this smart contract:\n * 1. Registeration for universities, programs, and students. And student enrollment into university, and a program.\n * 2. A university issuing degrees to its students.\n * 3. A third party verifying the student's degree details using the degree id.\n */\ncontract SmartDegree {\n    /**\n     * Define the structure of a student.\n     * @param studentAddress is the public address of the student's account.\n     * @param firstName is the first name of the student.\n     * @param lastName is the last name of the student.\n     * @param universityAddress is the public address of the university where student will be enrolled.\n     * @param isEnrolled will store the university enrollment status of the student. It will be true when the student is enrolled in a university.\n     * @param isActive is the active/inactive status of the student in the system.\n     * @notice the public address of the student's account is the primary key for each student.\n     */\n    struct Student {\n        address studentAddress;\n        string firstName;\n        string lastName;\n        address universityAddress;\n        bytes32 programId;\n        bool isEnrolled;\n        bool isActive;\n    }\n\n    /**\n     * Define the structure of a university.\n     * @param universityAddress is the public address of the university's account.\n     * @param name is the legal name of the university.\n     * @param country is the country of establishment of the university.\n     * @param isActive is the active/inactive status of the university in the system.\n     * @notice the public address of the university's account is the primary key for each university.\n     */\n    struct University {\n        address universityAddress;\n        string name;\n        string country;\n        bool isActive;\n    }\n\n    /**\n     * Define the structure of a university program.\n     * @param programId is a hash value of the combination of title, field, and universityAddress.\n     * @param title is the name of the program, for example Cloud Computing and Blockchain.\n     * @param field is the field of study, for example Computer Science and Engineering.\n     * @param universityAddress is the public address of the university to which the program belongs to.\n     * @param isActive the active/inactive status of the program in the system.\n     * @notice programId is the primary key for each program.\n     */\n    struct Program {\n        bytes32 programId;\n        string title;\n        string field;\n        address universityAddress;\n        bool isActive;\n    }\n\n    /**\n     * Define the structure of an issued degree.\n     * @param issuedDegreeId is a hash value of the combination of studentAddress and programId.\n     * @param studentAddress is the public address of the student to whom the degree is issued to.\n     * @param programId is the primary key of the catalog which is completed by the student.\n     * @param issuedAt is the time at which the degree was issued.\n     * @notice issuedDegreeId is the primary key for each program.\n     */\n    struct IssuedDegree {\n        bytes32 issuedDegreeId;\n        address studentAddress;\n        string firstName;\n        string lastName;\n        string university;\n        string country;\n        bytes32 programId;\n        uint256 issuedAt;\n    }\n\n    /**\n     * Define the structure of degree validation response.\n     * @param issuedDegreeId is the primary key of the dissued degree.\n     * @param studentAddress is the public address of the student to whom the degree is issued to.\n     * @param firstName is the first name of the student.\n     * @param lastName is the last name of the student.\n     * @param university is the name of the university.\n     * @param country is the country of establishment of the university.\n     * @param programId is the primary key of the program which is completed by the student.\n     * @param issuedAt is the time at which the degree was issued.\n     */\n    struct ValidationResponse {\n        bytes32 issuedDegreeId;\n        address studentAddress;\n        string firstName;\n        string lastName;\n        string university;\n        string country;\n        bytes32 programId;\n        uint256 issuedAt;\n    }\n\n    /**\n     * Define set of students, universities, programs, and issued degrees.\n     * Define counts for each mapping to be able to track their length.\n     */\n    mapping(address => University) universities;\n    address[] universityAddresses;\n\n    mapping(bytes32 => Program) programs;\n    bytes32[] programIds;\n\n    mapping(address => Student) students;\n    address[] studentAddresses;\n\n    mapping(bytes32 => IssuedDegree) issuedDegrees;\n    bytes32[] issuedDegreeIds;\n\n    /**\n     * Store the address of the owner of the smart contract in the contract storage.\n     */\n    address owner;\n\n    /**\n     * Error types used in the smart contract.\n     */\n    error InvalidDegreeError(string message);\n\n    /**\n     * Default constructor to initialize the smart contract.\n     * Sets the address of the account deploying the smart contract to the owner variable.\n     */\n    constructor() {\n        owner = msg.sender;\n    }\n\n    /**\n     * Function 1(a) - Register a university.\n     * @notice Only the contract owner can create a new university.\n     * @param _universityAddress is the public address of the new university.\n     * @param _universityName is the legal name of the new university.\n     * @param _universityCountry is the country of establishment of the new university.\n     * @return University object.\n     */\n    function registerUniversity(\n        address _universityAddress,\n        string memory _universityName,\n        string memory _universityCountry\n    ) public returns (University memory) {\n        require(\n            msg.sender == owner,\n            \"Only the contract owner is allowed to create a new university.\"\n        );\n        require(\n            universities[_universityAddress].isActive == false,\n            \"Cannot create duplicate university. Given university already exists and is active.\"\n        );\n\n        universities[_universityAddress] = University(\n            _universityAddress,\n            _universityName,\n            _universityCountry,\n            true\n        );\n        universityAddresses.push(\n            universities[_universityAddress].universityAddress\n        );\n\n        return universities[_universityAddress];\n    }\n\n    /**\n     * Function 1(b) - Return a list of universities.\n     * @return University[]\n     */\n    function getUniversities() public view returns (University[] memory) {\n        University[] memory response = new University[](\n            universityAddresses.length\n        );\n        for (uint256 i = 0; i < universityAddresses.length; i++) {\n            response[i] = universities[universityAddresses[i]];\n        }\n        return response;\n    }\n\n    /**\n     * Function 1(c) - Register a program.\n     * @notice Only a active university account can create a new program. The new program will only belong to the university creating it.\n     * @param _title is the name of the new program. Example: Cloud Computing and Blockchain.\n     * @param _field is the name of the field of study for the new program. Example: Computer Science and Engineering.\n     * @return Program object.\n     */\n    function registerProgram(\n        string memory _title,\n        string memory _field\n    ) public returns (Program memory) {\n        require(\n            universities[msg.sender].isActive == true,\n            \"University inactive or does not exist.\"\n        );\n\n        bytes32 programId = keccak256(abi.encode(_title, _field, msg.sender));\n\n        require(\n            programs[programId].isActive == false,\n            \"Program is already registered for your university.\"\n        );\n\n        programIds.push(programId);\n        programs[programId] = Program(\n            programId,\n            _title,\n            _field,\n            msg.sender,\n            true\n        );\n\n        return (programs[programId]);\n    }\n\n    /**\n     * Function 1(d) - Return a list of programs for a university.\n     * @return Program[]\n     */\n    function getProgramsForUniversity(\n        address _universityAddress\n    ) public view returns (Program[] memory) {\n        Program[] memory response = new Program[](programIds.length);\n        for (uint256 i = 0; i < programIds.length; i++) {\n            Program memory program = programs[programIds[i]];\n            if (program.universityAddress == _universityAddress) {\n                response[i] = program;\n            }\n        }\n        return response;\n    }\n\n    /**\n     * Function 1(e) - Register a student.\n     * Initially, the student will not be assigned to a university so the initial isEnrolled value will be false.\n     * Initially, the university address for the student will be set to 0.\n     * @notice The owner of the contract cannot be a student at any university.\n     * @notice The university and the student addresses cannot be same.\n     *         An address already belonging to a university account cannot also be used as the address for a new student.\n     * @param _firstName is the first name of the new student.\n     * @param _lastName is the last name of the new student.\n     * @return Student object.\n     */\n    function registerStudent(\n        string memory _firstName,\n        string memory _lastName\n    ) public returns (Student memory) {\n        require(msg.sender != owner, \"The contract owner cannot be a student.\");\n        require(\n            universities[msg.sender].isActive == false,\n            \"Cannot create student, address already belongs to a university.\"\n        );\n        require(\n            students[msg.sender].isActive == false,\n            \"Student is already registered.\"\n        );\n\n        studentAddresses.push(msg.sender);\n        students[msg.sender] = Student(\n            msg.sender,\n            _firstName,\n            _lastName,\n            address(0),\n            \"\",\n            false,\n            true\n        );\n\n        return (students[msg.sender]);\n    }\n\n    /**\n     * Function 1(f) - Request to join a university.\n     * @notice Only active students can request to join a university,\n     *         so the contract account, and any university account cannot create a request to join a university.\n     * @param _universityAddress is the address of the university which the student wants to join.\n     * @return string success message.\n     */\n    function requestToJoinUniversity(\n        address _universityAddress,\n        bytes32 _programId\n    ) public returns (string memory) {\n        require(\n            msg.sender != owner,\n            \"Contract owner cannot request to join a university.\"\n        );\n        require(\n            universities[msg.sender].isActive == false,\n            \"University account cannot cannot request to join a university.\"\n        );\n        require(\n            students[msg.sender].isActive == true,\n            \"Student inactive or does not exist.\"\n        );\n        require(\n            students[msg.sender].universityAddress != _universityAddress,\n            \"Student is already enrolled in the given university.\"\n        );\n        require(\n            programs[_programId].universityAddress == _universityAddress,\n            \"Program inactive or does not exist for given university.\"\n        );\n\n        students[msg.sender].universityAddress = _universityAddress;\n        students[msg.sender].programId = _programId;\n\n        return (\"Request submitted successfully.\");\n    }\n\n    /**\n     * Function 1(g) - Accept a student in university.\n     * @notice Only the requested university can accept a student.\n     * @param _studentAddress is the address of the student who wants to join the university.\n     * @return string success message.\n     */\n    function acceptStudent(\n        address _studentAddress\n    ) public returns (string memory) {\n        require(\n            universities[msg.sender].isActive == true,\n            \"University inactive or does not exist.\"\n        );\n        require(\n            students[_studentAddress].isActive == true,\n            \"Student inactive or does not exist.\"\n        );\n        require(\n            students[_studentAddress].universityAddress == msg.sender,\n            \"Student did not request to join university.\"\n        );\n        require(\n            students[_studentAddress].universityAddress == msg.sender &&\n                students[_studentAddress].isEnrolled == false,\n            \"Student is already enrolled in the university.\"\n        );\n        require(\n            programs[students[_studentAddress].programId].universityAddress ==\n                msg.sender,\n            \"Program does not belong to this university.\"\n        );\n\n        students[_studentAddress].isEnrolled = true;\n\n        return (\"Student accepted successfully.\");\n    }\n\n    /**\n     * Function 1(h) - Return a list of students enrolled in a university.\n     * @param _universityAddress is the address of the university.\n     * @return Student[]\n     */\n    function getStudentsForUniversity(\n        address _universityAddress\n    ) public view returns (Student[] memory) {\n        require(\n            universities[_universityAddress].isActive == true,\n            \"University inactive or does not exist.\"\n        );\n        Student[] memory response = new Student[](studentAddresses.length);\n        for (uint256 i = 0; i < studentAddresses.length; i++) {\n            Student memory student = students[studentAddresses[i]];\n            if (student.universityAddress == _universityAddress) {\n                response[i] = student;\n            }\n        }\n        return response;\n    }\n\n    /**\n     * Function 1(i) - Return details of student.\n     * @return Student\n     */\n    function getStudent(\n        address _studentAddress\n    ) public view returns (Student memory) {\n        require(\n            students[_studentAddress].isActive == true,\n            \"Student inactive or does not exist.\"\n        );\n        return students[_studentAddress];\n    }\n\n    /**\n     * Function 2(a) - A university issuing degrees to its students.\n     * @notice Only a university account can issue a new degree.\n     * @notice A university can only issue a degree for its own programs.\n     * @notice Once degree is issued, student will be removed from the university and the program.\n     * @param _studentAddress is the public address of the student to whom the degree belongs to.\n     * @return IssuedDegree object.\n     */\n    function issueDegree(\n        address _studentAddress\n    ) public returns (IssuedDegree memory) {\n        require(msg.sender != owner, \"Contract owner cannot issue degree.\");\n        require(\n            universities[msg.sender].isActive == true,\n            \"University inactive or does not exist.\"\n        );\n        require(\n            students[_studentAddress].isActive == true,\n            \"Student inactive or does not exist.\"\n        );\n        require(\n            students[_studentAddress].universityAddress == msg.sender,\n            \"The student does not belong to the university.\"\n        );\n        require(\n            students[_studentAddress].isEnrolled == true,\n            \"The student is not yet accepted in the university.\"\n        );\n\n        bytes32 issuedDegreeId = keccak256(\n            abi.encode(_studentAddress, students[_studentAddress].programId)\n        );\n\n        require(\n            issuedDegrees[issuedDegreeId].issuedDegreeId != issuedDegreeId,\n            \"Degree is already issued for given studentAddress and programId.\"\n        );\n\n        issuedDegreeIds.push(issuedDegreeId);\n        issuedDegrees[issuedDegreeId] = IssuedDegree(\n            issuedDegreeId,\n            _studentAddress,\n            students[_studentAddress].firstName,\n            students[_studentAddress].lastName,\n            universities[students[_studentAddress].universityAddress].name,\n            universities[students[_studentAddress].universityAddress].country,\n            students[_studentAddress].programId,\n            block.timestamp\n        );\n\n        students[_studentAddress].isEnrolled = false;\n        students[_studentAddress].universityAddress = address(0);\n        students[_studentAddress].programId = \"\";\n\n        return (issuedDegrees[issuedDegreeId]);\n    }\n\n    /**\n     * Function 2(b) - Return a list of degrees issued to a student.\n     * @return IssuedDegree[]\n     */\n    function getIssuedDegreesForStudent(\n        address _studentAddress\n    ) public view returns (IssuedDegree[] memory) {\n        IssuedDegree[] memory response = new IssuedDegree[](\n            issuedDegreeIds.length\n        );\n        for (uint256 i = 0; i < issuedDegreeIds.length; i++) {\n            IssuedDegree memory issuedDegree = issuedDegrees[\n                issuedDegreeIds[i]\n            ];\n            if (issuedDegree.studentAddress == _studentAddress) {\n                response[i] = issuedDegree;\n            }\n        }\n        return response;\n    }\n\n    /**\n     * Function 3 - A third party verifying the student's degree using the degree id.\n     * @param _degreeId is the id of the degree issued to the student.\n     * @return ValidationResponse object with degree, student, and university details to be presented to the verifier.\n     */\n    function validateDegree(\n        bytes32 _degreeId\n    ) public view returns (IssuedDegree memory) {\n        return issuedDegrees[_degreeId];\n    }\n}\n",
  "sourcePath": "/Users/shubham/Developer/Source/GitHub/tomasqn/SmartDegrees/contracts/SmartDegree.sol",
  "compiler": {
    "name": "solc",
    "version": "0.8.18+commit.87f61d96.Emscripten.clang"
  },
  "schemaVersion": "3.4.13",
  "updatedAt": "2023-04-23T20:39:17.140Z",
  "networkType": "ethereum",
  "devdoc": {
    "kind": "dev",
    "methods": {
      "acceptStudent(address)": {
        "params": {
          "_studentAddress": "is the address of the student who wants to join the university."
        },
        "returns": {
          "_0": "string success message."
        }
      },
      "getIssuedDegreesForStudent(address)": {
        "returns": {
          "_0": "IssuedDegree[]"
        }
      },
      "getProgramsForUniversity(address)": {
        "returns": {
          "_0": "Program[]"
        }
      },
      "getStudent(address)": {
        "returns": {
          "_0": "Student"
        }
      },
      "getStudentsForUniversity(address)": {
        "params": {
          "_universityAddress": "is the address of the university."
        },
        "returns": {
          "_0": "Student[]"
        }
      },
      "getUniversities()": {
        "returns": {
          "_0": "University[]"
        }
      },
      "issueDegree(address)": {
        "params": {
          "_studentAddress": "is the public address of the student to whom the degree belongs to."
        },
        "returns": {
          "_0": "IssuedDegree object."
        }
      },
      "registerProgram(string,string)": {
        "params": {
          "_field": "is the name of the field of study for the new program. Example: Computer Science and Engineering.",
          "_title": "is the name of the new program. Example: Cloud Computing and Blockchain."
        },
        "returns": {
          "_0": "Program object."
        }
      },
      "registerStudent(string,string)": {
        "params": {
          "_firstName": "is the first name of the new student.",
          "_lastName": "is the last name of the new student."
        },
        "returns": {
          "_0": "Student object."
        }
      },
      "registerUniversity(address,string,string)": {
        "params": {
          "_universityAddress": "is the public address of the new university.",
          "_universityCountry": "is the country of establishment of the new university.",
          "_universityName": "is the legal name of the new university."
        },
        "returns": {
          "_0": "University object."
        }
      },
      "requestToJoinUniversity(address,bytes32)": {
        "params": {
          "_universityAddress": "is the address of the university which the student wants to join."
        },
        "returns": {
          "_0": "string success message."
        }
      },
      "validateDegree(bytes32)": {
        "params": {
          "_degreeId": "is the id of the degree issued to the student."
        },
        "returns": {
          "_0": "ValidationResponse object with degree, student, and university details to be presented to the verifier."
        }
      }
    },
    "version": 1
  },
  "userdoc": {
    "errors": {
      "InvalidDegreeError(string)": [
        {
          "notice": "Error types used in the smart contract."
        }
      ]
    },
    "kind": "user",
    "methods": {
      "acceptStudent(address)": {
        "notice": "Function 1(g) - Accept a student in university.Only the requested university can accept a student."
      },
      "constructor": {
        "notice": "Default constructor to initialize the smart contract. Sets the address of the account deploying the smart contract to the owner variable."
      },
      "getIssuedDegreesForStudent(address)": {
        "notice": "Function 2(b) - Return a list of degrees issued to a student."
      },
      "getProgramsForUniversity(address)": {
        "notice": "Function 1(d) - Return a list of programs for a university."
      },
      "getStudent(address)": {
        "notice": "Function 1(i) - Return details of student."
      },
      "getStudentsForUniversity(address)": {
        "notice": "Function 1(h) - Return a list of students enrolled in a university."
      },
      "getUniversities()": {
        "notice": "Function 1(b) - Return a list of universities."
      },
      "issueDegree(address)": {
        "notice": "Function 2(a) - A university issuing degrees to its students.Only a university account can issue a new degree.A university can only issue a degree for its own programs.Once degree is issued, student will be removed from the university and the program."
      },
      "registerProgram(string,string)": {
        "notice": "Function 1(c) - Register a program.Only a active university account can create a new program. The new program will only belong to the university creating it."
      },
      "registerStudent(string,string)": {
        "notice": "Function 1(e) - Register a student. Initially, the student will not be assigned to a university so the initial isEnrolled value will be false. Initially, the university address for the student will be set to 0.The owner of the contract cannot be a student at any university.The university and the student addresses cannot be same.         An address already belonging to a university account cannot also be used as the address for a new student."
      },
      "registerUniversity(address,string,string)": {
        "notice": "Function 1(a) - Register a university.Only the contract owner can create a new university."
      },
      "requestToJoinUniversity(address,bytes32)": {
        "notice": "Function 1(f) - Request to join a university.Only active students can request to join a university,         so the contract account, and any university account cannot create a request to join a university."
      },
      "validateDegree(bytes32)": {
        "notice": "Function 3 - A third party verifying the student's degree using the degree id."
      }
    },
    "notice": "Functions available in this smart contract: 1. Registeration for universities, programs, and students. And student enrollment into university, and a program. 2. A university issuing degrees to its students. 3. A third party verifying the student's degree details using the degree id.",
    "version": 1
  }
}